{
  "_format": "hh-sol-artifact-1",
  "contractName": "Token",
  "sourceName": "contracts/token.sol",
  "abi": [
    {
      "inputs": [],
      "stateMutability": "nonpayable",
      "type": "constructor"
    },
    {
      "inputs": [
        {
          "internalType": "address",
          "name": "account",
          "type": "address"
        }
      ],
      "name": "balanceOfAccount",
      "outputs": [
        {
          "internalType": "uint256",
          "name": "",
          "type": "uint256"
        }
      ],
      "stateMutability": "view",
      "type": "function"
    },
    {
      "inputs": [],
      "name": "name",
      "outputs": [
        {
          "internalType": "string",
          "name": "",
          "type": "string"
        }
      ],
      "stateMutability": "view",
      "type": "function"
    },
    {
      "inputs": [],
      "name": "owner",
      "outputs": [
        {
          "internalType": "address",
          "name": "",
          "type": "address"
        }
      ],
      "stateMutability": "view",
      "type": "function"
    },
    {
      "inputs": [],
      "name": "symbol",
      "outputs": [
        {
          "internalType": "string",
          "name": "",
          "type": "string"
        }
      ],
      "stateMutability": "view",
      "type": "function"
    },
    {
      "inputs": [],
      "name": "totalSupply",
      "outputs": [
        {
          "internalType": "uint256",
          "name": "",
          "type": "uint256"
        }
      ],
      "stateMutability": "view",
      "type": "function"
    },
    {
      "inputs": [
        {
          "internalType": "address",
          "name": "to",
          "type": "address"
        },
        {
          "internalType": "uint256",
          "name": "amount",
          "type": "uint256"
        }
      ],
      "name": "transfer",
      "outputs": [],
      "stateMutability": "nonpayable",
      "type": "function"
    }
  ],
  "bytecode": "0x60806040526040518060400160405280600d81526020017f4861726468617420546f6b656e00000000000000000000000000000000000000815250600090816200004a9190620003ae565b506040518060400160405280600481526020017f484874680000000000000000000000000000000000000000000000000000000081525060019081620000919190620003ae565b50620186a0600255348015620000a657600080fd5b50600254600460003373ffffffffffffffffffffffffffffffffffffffff1673ffffffffffffffffffffffffffffffffffffffff1681526020019081526020016000208190555033600360006101000a81548173ffffffffffffffffffffffffffffffffffffffff021916908373ffffffffffffffffffffffffffffffffffffffff16021790555062000495565b600081519050919050565b7f4e487b7100000000000000000000000000000000000000000000000000000000600052604160045260246000fd5b7f4e487b7100000000000000000000000000000000000000000000000000000000600052602260045260246000fd5b60006002820490506001821680620001b657607f821691505b602082108103620001cc57620001cb6200016e565b5b50919050565b60008190508160005260206000209050919050565b60006020601f8301049050919050565b600082821b905092915050565b600060088302620002367fffffffffffffffffffffffffffffffffffffffffffffffffffffffffffffffff82620001f7565b620002428683620001f7565b95508019841693508086168417925050509392505050565b6000819050919050565b6000819050919050565b60006200028f6200028962000283846200025a565b62000264565b6200025a565b9050919050565b6000819050919050565b620002ab836200026e565b620002c3620002ba8262000296565b84845462000204565b825550505050565b600090565b620002da620002cb565b620002e7818484620002a0565b505050565b5b818110156200030f5762000303600082620002d0565b600181019050620002ed565b5050565b601f8211156200035e576200032881620001d2565b6200033384620001e7565b8101602085101562000343578190505b6200035b6200035285620001e7565b830182620002ec565b50505b505050565b600082821c905092915050565b6000620003836000198460080262000363565b1980831691505092915050565b60006200039e838362000370565b9150826002028217905092915050565b620003b98262000134565b67ffffffffffffffff811115620003d557620003d46200013f565b5b620003e182546200019d565b620003ee82828562000313565b600060209050601f83116001811462000426576000841562000411578287015190505b6200041d858262000390565b8655506200048d565b601f1984166200043686620001d2565b60005b82811015620004605784890151825560018201915060208501945060208101905062000439565b868310156200048057848901516200047c601f89168262000370565b8355505b6001600288020188555050505b505050505050565b610a2980620004a56000396000f3fe608060405234801561001057600080fd5b50600436106100625760003560e01c806306fdde031461006757806318160ddd146100855780638da5cb5b146100a357806395d89b41146100c1578063a9059cbb146100df578063c237d392146100fb575b600080fd5b61006f61012b565b60405161007c9190610679565b60405180910390f35b61008d6101b9565b60405161009a91906106b4565b60405180910390f35b6100ab6101bf565b6040516100b89190610710565b60405180910390f35b6100c96101e5565b6040516100d69190610679565b60405180910390f35b6100f960048036038101906100f49190610788565b610273565b005b610115600480360381019061011091906107c8565b61043c565b60405161012291906106b4565b60405180910390f35b6000805461013890610824565b80601f016020809104026020016040519081016040528092919081815260200182805461016490610824565b80156101b15780601f10610186576101008083540402835291602001916101b1565b820191906000526020600020905b81548152906001019060200180831161019457829003601f168201915b505050505081565b60025481565b600360009054906101000a900473ffffffffffffffffffffffffffffffffffffffff1681565b600180546101f290610824565b80601f016020809104026020016040519081016040528092919081815260200182805461021e90610824565b801561026b5780601f106102405761010080835404028352916020019161026b565b820191906000526020600020905b81548152906001019060200180831161024e57829003601f168201915b505050505081565b6102f16040518060400160405280601f81526020017f2a2a53656e6465722062616c616e636520697320257320746f6b656e732a2a00815250600460003373ffffffffffffffffffffffffffffffffffffffff1673ffffffffffffffffffffffffffffffffffffffff16815260200190815260200160002054610485565b6103146040518060600160405280602d81526020016109c7602d91398284610521565b80600460003373ffffffffffffffffffffffffffffffffffffffff1673ffffffffffffffffffffffffffffffffffffffff168152602001908152602001600020541015610396576040517f08c379a000000000000000000000000000000000000000000000000000000000815260040161038d906108a1565b60405180910390fd5b80600460003373ffffffffffffffffffffffffffffffffffffffff1673ffffffffffffffffffffffffffffffffffffffff16815260200190815260200160002060008282546103e591906108f0565b9250508190555080600460008473ffffffffffffffffffffffffffffffffffffffff1673ffffffffffffffffffffffffffffffffffffffff168152602001908152602001600020546104379190610924565b505050565b6000600460008373ffffffffffffffffffffffffffffffffffffffff1673ffffffffffffffffffffffffffffffffffffffff168152602001908152602001600020549050919050565b61051d828260405160240161049b929190610958565b6040516020818303038152906040527fb60e72cc000000000000000000000000000000000000000000000000000000007bffffffffffffffffffffffffffffffffffffffffffffffffffffffff19166020820180517bffffffffffffffffffffffffffffffffffffffffffffffffffffffff83818316178352505050506105c0565b5050565b6105bb83838360405160240161053993929190610988565b6040516020818303038152906040527f1c7ec448000000000000000000000000000000000000000000000000000000007bffffffffffffffffffffffffffffffffffffffffffffffffffffffff19166020820180517bffffffffffffffffffffffffffffffffffffffffffffffffffffffff83818316178352505050506105c0565b505050565b60008151905060006a636f6e736f6c652e6c6f679050602083016000808483855afa5050505050565b600081519050919050565b600082825260208201905092915050565b60005b83811015610623578082015181840152602081019050610608565b60008484015250505050565b6000601f19601f8301169050919050565b600061064b826105e9565b61065581856105f4565b9350610665818560208601610605565b61066e8161062f565b840191505092915050565b600060208201905081810360008301526106938184610640565b905092915050565b6000819050919050565b6106ae8161069b565b82525050565b60006020820190506106c960008301846106a5565b92915050565b600073ffffffffffffffffffffffffffffffffffffffff82169050919050565b60006106fa826106cf565b9050919050565b61070a816106ef565b82525050565b60006020820190506107256000830184610701565b92915050565b600080fd5b610739816106ef565b811461074457600080fd5b50565b60008135905061075681610730565b92915050565b6107658161069b565b811461077057600080fd5b50565b6000813590506107828161075c565b92915050565b6000806040838503121561079f5761079e61072b565b5b60006107ad85828601610747565b92505060206107be85828601610773565b9150509250929050565b6000602082840312156107de576107dd61072b565b5b60006107ec84828501610747565b91505092915050565b7f4e487b7100000000000000000000000000000000000000000000000000000000600052602260045260246000fd5b6000600282049050600182168061083c57607f821691505b60208210810361084f5761084e6107f5565b5b50919050565b7f4e6f7420456e6f75676820546f6b656e73000000000000000000000000000000600082015250565b600061088b6011836105f4565b915061089682610855565b602082019050919050565b600060208201905081810360008301526108ba8161087e565b9050919050565b7f4e487b7100000000000000000000000000000000000000000000000000000000600052601160045260246000fd5b60006108fb8261069b565b91506109068361069b565b925082820390508181111561091e5761091d6108c1565b5b92915050565b600061092f8261069b565b915061093a8361069b565b9250828201905080821115610952576109516108c1565b5b92915050565b600060408201905081810360008301526109728185610640565b905061098160208301846106a5565b9392505050565b600060608201905081810360008301526109a28186610640565b90506109b160208301856106a5565b6109be6040830184610701565b94935050505056fe2a2a53656e6465722069732073656e64696e6720257320746f6b656e7320746f20256d20616464726573732a2aa26469706673582212202007e4e4318b10a6985fe33f9bd62e17983118117804288a4a18eeebb009848d64736f6c63430008110033",
  "linkReferences": {},
  "deployedLinkReferences": {}
}